:020000040800F2
:10000000200D002049010008F907000885080008B4
:10001000AD08000861080008090B00080000000096
:100020000000000000000000000000005B0100086C
:10003000F7070008000000005F01000861010008E8
:100040006301000863010008630100086301000800
:1000500063010008630100086301000863010008F0
:1000600063010008630100086301000863010008E0
:1000700063010008630100086301000863010008D0
:1000800063010008630100086301000863010008C0
:1000900063010008630100086301000863010008B0
:1000A00063010008630100086301000863010008A0
:1000B0006301000863010008630100086301000890
:1000C0006301000863010008630100086301000880
:1000D0006301000863010008630100086301000870
:1000E0006301000863010008630100086301000860
:1000F0006301000863010008630100086301000850
:10010000630100086301000863010008630100083F
:100110006301000863010008B90A000863010008D0
:10012000630100086301000863010008630100081F
:10013000DFF810D000F0CEFA00480047092600088A
:10014000AFF30080200D0020064880470648004796
:10015000FEE7FEE7FEE7FEE7FEE7FEE7FEE7FEE777
:10016000FEE7FEE7110A00083101000840EA01033A
:100170009B0703D009E008C9121F08C0042AFAD25D
:1001800003E011F8013B00F8013B521EF9D2704721
:10019000D2B201E000F8012B491EFBD270470022C9
:1001A000F6E710B513460A4604461946FFF7F0FF76
:1001B000204610BDF0B4CA17CB0F50405140C618AE
:1001C00041F100054FEAC372314628004FF0960313
:1001D00003D0B623F0BC00F096B830460021F9E712
:1001E00010B500F0004420F00040C20DC0F316002E
:1001F00040F400007F2A02DA0020014610BD0021F1
:10020000962A03DCC2F19602D04002E0963A00F052
:1002100062F8002CF2D00023D0EB030063EB010165
:1002200010BD00F0004230F000400AD0C10D01F5D1
:100230006071C0F3160042EA0151C2084007114341
:10024000704700200146704730B50B46014600203C
:100250002022012409E021FA02F59D4205D303FA88
:1002600002F5491B04FA02F52844151EA2F1010209
:10027000F1DC30BD2DE9F05F0546002092469B463B
:1002800088460646814640241BE0284641464746AC
:10029000224600F031FA53465A46C01A914110D313
:1002A00011461846224600F016F82D1A67EB010891
:1002B0004F4622460120002100F00DF817EB0009FF
:1002C0004E41201EA4F10104DFDC484631462A4697
:1002D0004346BDE8F09F202A04DB203A00FA02F1F1
:1002E000002070479140C2F1200320FA03F3194324
:1002F000904070470029A8BF7047401C490008BFC4
:1003000020F00100704710B4B0FA80FC00FA0CF045
:1003100050EA010404BF10BC704749B1CCF120047D
:1003200021FA04F411FA0CF118BF0121214308430A
:10033000A3EB0C01CB1D4FEA00614FEA102042BF36
:10034000002010BC704700EBC35010440029A4BF2C
:1003500010BC7047401C490008BF20F0010010BCD1
:1003600070472DE9FE4F804681EA0300C00F0C461E
:10037000009021F0004123F00045B8EB0200A941B4
:1003800005D24046214690461C460B46024623F0C5
:100390000040104347D0270DC7F30A00C3F30A51AA
:1003A0000290401A019040286BDAC3F3130040F426
:1003B000801B0098924620B10023D2EB030A63EB26
:1003C0000B0B01985946C0F140025046FFF783FFDE
:1003D00006460D4650465946019A00F09DF910EB2D
:1003E00008006141002487EA115284EAE7731A4346
:1003F00040D0009A62B3019A012A4FEA075215DCF5
:10040000001B61EB02014FF0004202EA0752CDE906
:100410000042001C41F5801132462B4600F09DF948
:1004200003B0BDE8F08F40462146F9E7001B61EBC1
:100430000201001C41F5801300185B412018A2F551
:10044000001747EB030140EAD570B6196D4111E082
:100450006D084FEA360645EAC0754FEA0752001BA1
:1004600061EB0201001C41F5801149084FEA3000A0
:100470000019514132462B4603B0BDE8F04F00F061
:100480005DB90098012240000023D0EB020263EB2B
:10049000E073009821464FEAE074B8EB000061EB8E
:1004A0000401E9E783F000435BE781F0004158E78E
:1004B0002DE9FE4F81EA030404F0004421F00041DD
:1004C00000944FF0000B23F0004350EA01045ED08B
:1004D00052EA03045BD0C3F30A54C1F30A552C4417
:1004E000A4F2F3340194A0FB0254C1F3130141F4CC
:1004F0008011C3F3130343F4801301FB024400FB98
:10050000034E840A970A44EA815447EA8357A4FBBE
:10051000076802958D0A05FB07854FEA932C04FBBB
:100520000C542705029D4FEA065847EA1637B5EBEB
:1005300008056EEB070C870E920E47EA811742EA18
:100540008312A7FB0201B6EB0B0164EB00042B0D39
:1005500043EA0C335E1844EB1C50DA465146E7FB85
:100560000201C5F313044FEA0B3343EA14534FEA75
:100570000432019C43EA0603A4F10C040294009C9B
:10058000CDE900B400F0E9F803B0BDE8F08F002039
:100590000146F9E72DE9F04D81EA030404F0004B30
:1005A00021F0004514464FF0000A23F0004150EAC4
:1005B000050220D054EA01021DD0C5F30A570246B5
:1005C000C5F31303C1F31300C1F30A5640F48015B9
:1005D00043F48013A7EB0608101BD64608F2FD383B
:1005E00073EB050002D308F1010801E092185B41AA
:1005F000B8F1000F03DA00200146BDE8F08D0020BD
:100600004FF48011064684460EE0171B73EB050776
:1006100005D3121B63EB050306434CEA010C4908A2
:100620004FEA300092185B4150EA0107EDD152EADF
:10063000030012D082EA040083EA0501084305D0D2
:10064000101BAB4106D20122002306E000224FF02E
:10065000004302E06FF0010253101AEB06004CEB6E
:10066000085110EB0A0041EB0B01BDE8F04D00F022
:1006700065B8C1F30A52C1F3130140F2FF3341F4EC
:1006800080119A4202DA00200146704740F233435B
:100690009A42A2F2334202DC524200F02DB8FFF738
:1006A0001ABE000030B5041E71F1000404DB4FF0E7
:1006B0000044404264EB0101141E73F1000405DBA9
:1006C0001C464FF00043524263EB0403994208BFBB
:1006D000904230BD064C074D06E0E06840F0010353
:1006E00094E8070098471034AC42F6D3FFF724FD96
:1006F000E837000808380008202A04DB203A21FAED
:1007000002F00021704721FA02F3D040C2F120022A
:100710009140084319467047202A06DBCB17203A40
:1007200041FA02F043EAE07306E041FA02F3D040F6
:10073000C2F12002914008431946704710B5141EBB
:1007400073F1000408DA401C41F1000192185B418A
:100750001A4301D120F0010010BD2DE9F04D924661
:100760009B4611B1B1FA81F202E0B0FA80F2203278
:100770009046FFF7B0FD04460F4640EA0A0041EA02
:100780000B0153465A46084313D0114653EA010061
:1007900019D0C8F140025046FFF7AEFF05460E469D
:1007A000504659464246FFF796FD084305D00120C2
:1007B00004E020463946BDE8F08D0020054346EAB6
:1007C000E0762C4337430A986305E40AA0EB08005F
:1007D0000022FD0A44EA47540A3002D500200146AF
:1007E000E9E7010510196941DDE90845001969418A
:1007F000BDE8F04DA2E77047704770474161704710
:10080000503133534C000000000000000000000095
:1008100000000000000000000000000000000000D8
:1008200030302E30312E303100000000000000004A
:1008300000000000000000000000000000000000B8
:100840004D61792031322032303233202D20313544
:100850003A35363A31330000000000000000000055
:1008600002A000F065F900BFFEE700000A0A0D20B3
:100870004275734661756C745F48616E646C657235
:100880002E0A0A0002A000F053F900BFFEE70000A4
:100890000A0A0D20486172644661756C745F486194
:1008A0006E646C65722E0A0A0000000002A000F05F
:1008B0003FF900BFFEE700000A0A0D204D656D4DAF
:1008C000616E6167655F48616E646C65722E0A0ACD
:1008D000000000002DE9FF470FF2101ADAE900C806
:1008E000DAE9029ACDE900C8CDE9029ADFF80CC135
:1008F000DCF804C0CCF3810727B1012F09D0022F07
:1009000058D10DE0DFF8F8C0DFF8F880C8F800C073
:1009100057E0DFF8ECC0DFF8EC80C8F800C050E02A
:10092000DFF8D8C0DCF804C00CF48034B4F5803FA4
:1009300014D1DFF8C8C0DCF82CC00CF080420AB932
:100940002F4900E03049DFF8B4C0DCF804C00CF4F3
:100950000033B3F5003F02D1490800E02B49DFF82E
:100960009CC0DCF804C0CCF38340DFF890C0DCF816
:1009700004C00CF0006CBCF1000F01D040F010007E
:10098000DFF878C0DCF804C00CF0804CBCF1000F3C
:1009900001D040F020000F2801D3401C00E0801C53
:1009A0003D2800D93F2001FB00FCDFF85880C8F843
:1009B00000C006E0DFF848C0DFF84880C8F800C093
:1009C00000BF00BFDFF834C0DCF804C0CCF303156F
:1009D0001DF80560DFF82CC0DCF800C02CFA06FC1E
:1009E000DFF82080C8F800C0BDE8FF8700000000E5
:1009F000000000000102030406070809001002407D
:100A000000127A0000000020006CDC0200093D00AA
:100A100008B52648006840F470002449086024485E
:100A2000006840F001002249086000BF20480068CB
:100A300000F002000028F9D000BF1D48406840F0D7
:100A400080001B4948600020009002E00098401C94
:100A5000009000985028F9D31548406840F0900065
:100A6000134948600020009002E00098401C00906C
:100A700000985028F9D300BF0D48406820F00300CB
:100A80000B494860084600680A4908400849086060
:100A90004FF41F0088600846006820F4802008603A
:100AA00000204860C86202F0FDF808BD88ED00E053
:100AB00000100240FFFFF6FE10B501210F4802F0C2
:100AC000C2F9C8B101210D4802F0BAF90C48D0E9C9
:100AD00000304FF480329A1840F100000849C1E913
:100AE00000200848D0E900304FF48031591840F117
:100AF0000000044AC2E9001010BD000000100040D0
:100B0000080000201000002002A000F011F800BF33
:100B1000FEE700000A0A0D2055736167654661759E
:100B20006C745F48616E646C65722E0A0A00000086
:100B30000FB4054B10B503A9044A029800F0D8F889
:100B400010BC5DF814FB00001D24000818000020F4
:100B500002E008C8121F08C1002AFAD1704700201D
:100B600001E001C1121F002AFBD170472DE9FF5F90
:100B700082B00021DDE90430020DDDF840B003430E
:100B800018D044F61050A2F2FF32424315141198C7
:100B900001281FD0A5EB0B00401C5FEA000A4FF0B4
:100BA00000064E4FDFF83891B046504615D5CAF1D1
:100BB000000413E0119801244AA3012801D16FEA2F
:100BC0000B010298119AC0E90031C0E9024206B057
:100BD000BDE8F09FCBF10000DFE704460021404A6A
:100BE000491842EB0450CDE9001012E0E00707D0AD
:100BF00032463B4640464946FFF75AFC8046894606
:100C000032463B4610461946FFF752FC06460F4651
:100C10006410002CEAD1DDE90401DDE90023BAF11A
:100C2000000F06DAFFF744FC42464B46FFF740FC54
:100C300005E0FFF7AFFC42464B46FFF7ABFC04462E
:100C40000E460022284BFFF72DFD03D84FF0FF3052
:100C5000014607E00022254B20463146FFF781FB85
:100C6000FFF707FD102409E0002C0ADB0A2200230D
:100C7000FFF700FB039B30321A55641E50EA010255
:100C8000F2D1641C039AC4F111031444119A012A8D
:100C900003D0012208430DD10AE0084304D000200C
:100CA0004FF0110B119072E7A3EB0B056D1E0DE0D9
:100CB0005B4504DD4FF0000205F1010504E003DAB5
:100CC0004FF00002A5F10105002AECD0029811991D
:100CD000C0E90231C0E9004579E700000000144096
:100CE0000000F03F300000000000F0430000E03F53
:100CF0002DE9FF4F95B09A46884606460025EEE15D
:100D0000252877D100242746F94A0121039400E0E1
:100D1000044316F8013F203B01FA03F01042F7D1DB
:100D200030782A2811D06FF02F033078A0F13002EC
:100D3000092A16D8039A44F0020402EB820203EB5C
:100D400042021044761C0390EFE758F8042B0392FC
:100D5000002A03DA504244F40054039044F00204A1
:100D6000761C30782E2816D116F8010F44F00404B2
:100D70002A280DD06FF02F023078A0F13003092B14
:100D800009D807EB870302EB4303C718761CF3E788
:100D900058F8047B761C30786C280FD006DC4C2881
:100DA00017D068280DD06A2814D104E0742810D018
:100DB0007A280FD10DE044F400140AE044F48014C2
:100DC00001E044F440147278824202D104F58014A8
:100DD000761C761C307866280BD013DC582877D028
:100DE00009DC002875D04528F6D04628F4D04728DD
:100DF0001AD193E118E0632835D0642879D06528AA
:100E000012D18BE1702873D008DC6728F1D06928F3
:100E10006FD06E280DD06F2806D1ACE073282CD08F
:100E2000752874D0782853D05246179990476D1C76
:100E300054E1C4F30250022809D003280DD0D8F899
:100E4000001004280DD00D6008F1040846E1D8F820
:100E50000010EA17C1E90052F6E7D8F800100D803B
:100E6000F2E70D70F0E718F8041B8DF80010002071
:100E70008DF80100EB46012003E058F804BB4FF069
:100E8000FF3061074FF0000102D40DE009F10101CC
:100E90008946B9420FDA8145F8DB1BF809100029B1
:100EA000F4D108E009F1010189468142FADB1BF81F
:100EB00009100029F6D103985346A0EB09072146F3
:100EC0003846179A00F080FA284400EB090507E03D
:100ED00044E008E10DE01BF8010B524617999047DA
:100EE000B9F10109F7D2534621463846179AF2E084
:100EF00039E00A21C4F302524FF0000B0091022A9C
:100F000006D058F8040BC117032A09D00AE023E0E1
:100F100008F1070020F00702F2E80201904605E020
:100F200000B2C117042A01D140B2C117002906DA64
:100F30000A460021404261EB02012D2202E0220517
:100F400004D52B228DF80420012203E0E20701D012
:100F50002022F7E7914657E00A2100E010214FF0E8
:100F6000000B00910BE010214FF0000B44F0040443
:100F70000827009103E008204FF0000B0090C4F315
:100F80000252022A05D058F8040B0021032A08D087
:100F900008E008F1070020F00702F2E8020190469D
:100FA00003E080B2042A00D1C0B24FF0000922074A
:100FB0002AD53278702A07D0DDF800C08CF0100CEA
:100FC0005CEA0B0C05D00EE040228DF804200122D3
:100FD00008E050EA010306D030238DF804308DF884
:100FE000052002229146009B83F0080353EA0B037D
:100FF0000AD150EA010201D1620705D530228DF8ED
:1010000004204FF001097F1E3278582A04D039A2FB
:101010000C920CAA02920BE03BA2F9E75B46009A05
:10102000FFF728F90C9B9B5C029A521E02921370E8
:1010300050EA0102F2D1029804A9081A00F1200B2B
:10104000600702D524F4803400E001275F4502DD0B
:10105000A7EB0B0000E0002000EB0B0100900398D1
:101060004944401A0390E00306D453462146179A98
:10107000039800F0A9F90544002706E001A85246AC
:10108000C05D179990476D1C7F1C4F45F6DBE00350
:101090000CD553462146179A039800F095F905445C
:1010A00004E030205246179990476D1C0099481E65
:1010B00000900029F5DC08E0029802995246007879
:1010C000491C0291179990476D1CBBF10001ABF1CF
:1010D000010BF1DC5BE100F065F90544761C30782A
:1010E00000287FF40DAE19B02846BDE8F08F00004F
:1010F00009280100303132333435363738396162EE
:1011000063646566000000003031323334353637B1
:10111000383941424344454600000000600700D48E
:10112000062708F1070020F00700F0E802238046B8
:1011300003F0004C5FEA0C0001D097A009E0200505
:1011400001D596A005E0E00701D095A001E0AFF23F
:101150004C001390307823F0004365280CD006DC57
:10116000452809D046281DD047287FD13BE0662876
:1011700018D067287AD136E00021112F01DB112029
:1011800000E0781CCDE9000104A90CA8FFF7EEFCF3
:10119000DDE90D010C9A4FF0000B07F101091092E7
:1011A00000914EE04FF000400097CDE9011004A9F6
:1011B0000CA8FFF7DBFCDDE90D020C9B0F994FF04B
:1011C000000B91461093009211B9791C00EB0109B4
:1011D000B7EB090003D4C0F1FF3B07F10109A9EB0C
:1011E0000700019042E0012F00DA01270021112FB2
:1011F00001DD112000E03846CDE9000104A90CA86A
:10120000FFF7B4FCDDE90D010C9A00914FF0000BE3
:10121000B946109221070FD4009A4A4503DA914645
:1012200001E0A9F10109B9F1010F05DD109AA9F159
:101230000101515C3029F4D0B84202DA10F1040FF8
:1012400003DA0121CDE9011010E0002803DC83441A
:10125000A9EB000102E0411C494500DD8946A0EBF5
:101260000B00401C01904FF000400290200705D475
:101270000198484502DB4FF0FF30019000208DF8C7
:101280004B0002980DF14B07B0F1004F25D0022022
:101290000C902B200D90029800280CDA404202900E
:1012A0002D200D9007E00A210298FEF7CDFF303186
:1012B000029007F8011D0C99481E0C900029F2DCE1
:1012C00002980028EFD1791E0D980870307800F050
:1012D000200040F0450007F8020D11A8C01BC01DFA
:1012E00002901398007800B1012000EB09010198E9
:1012F00001EBE071029801440398401A401E0390EC
:10130000E00306D453462146179A039800F05CF890
:1013100005441398007818B15246179990476D1CF0
:10132000E00323D553462146179A039800F04CF862
:1013300005441BE0BBF1000F07DB0098584504DDB6
:101340001098179910F80B0001E0179930205246B9
:10135000904701980BF1010B401E05F1010501902A
:1013600004D12E205246179990476D1CB9F1000107
:10137000A9F10109DEDC05E017F8010B52461799C7
:1013800090476D1C0299481E02900029F4DC5346D8
:101390002146179A03989EE62D0000002B000000BE
:1013A000200000002DE9F041044600251E461746A6
:1013B000880404D405E039462020B0476D1C641E23
:1013C000F9D52846BDE8F0812DE9F0410446002515
:1013D0001E469046C80301D5302700E02027880428
:1013E00004D505E041463846B0476D1C641EF9D56A
:1013F0002846BDE8F081000010B50C4890F8480080
:1014000000F0040080B9094890F8880000F004005A
:1014100050B9064800F0C4F80421022001F02EFF64
:101420000521042001F02AFF012010BD2002002028
:1014300010B50024214890F8480000F0040000286E
:1014400019D01E4940311D4800F0BEF870B9402245
:101450001A4940311948FEF789FE0021022001F0A7
:101460000DFF17A0FFF764FB002010BD1FA0FFF7C2
:101470005FFB44F00104114890F8880000F004007C
:10148000002819D00D4980310C4800F09DF870B942
:1014900040220A4980310948FEF768FE01210420F4
:1014A00001F0ECFE1CA0FFF743FB0020DDE725A0C8
:1014B000FFF73EFB44F002042046D6E7200200205E
:1014C0000A0D626F6F746C6F616465722066726F73
:1014D0006D20696E7369646520E69BB4E696B0E69C
:1014E0008890E58A9F2E0D0A000000000A0D626FA9
:1014F0006F746C6F616465722066726F6D20696EC7
:101500007369646520E69BB4E696B0E5A4B1E8B4DF
:10151000A52E0D0A000000000A0D626F6F746C6F3B
:10152000616465722066726F6D206F757473696493
:101530006520E69BB4E696B0E68890E58A9F2E0D7E
:101540000A0000000A0D626F6F746C6F616465724F
:101550002066726F6D206F7574736964652020E674
:101560009BB4E696B0E5A4B1E8B4A52E0D0A000040
:101570002DE9F0410446002500260027266807488B
:101580003040B04206D165682F46206880F3088855
:1015900000BFB8470120BDE8F0810000FFFF0F2029
:1015A00010B5044607496069884205D0204601F01D
:1015B000ADFC6169884202D1E068FFF7D9FF0120E4
:1015C00010BD0000214334122DE9F04F2DED028BA8
:1015D00081B005460C464FF00009CA460020009035
:1015E00000278046002604B12DB9012001B0BDECD2
:1015F000028BBDE8F08F204601F088FC0090616905
:10160000884206D062693CA00099FFF791FA022057
:10161000ECE7284601F07AFC6169884201D100209C
:10162000E4E7D4F80C90D5F80CA027692369EA68A0
:101630003A48E168FFF77CFA4CE0B7F5806F02DDCD
:101640004FF4806000E038468046207A00F00100C8
:1016500030B142463249484600F0BAFA064305E046
:1016600042462F49484600F099F80643287A00F090
:10167000010030B142462A49504600F005FB0643BE
:1016800005E042462649504600F0ACF806430EB14C
:101690000420ABE7C144C244A7EB08072069C01B84
:1016A00000EE100AF8EE400A94ED040AB8EE401A73
:1016B00080EE810ADFED1B0A20EE200A10EE10BA40
:1016C0005846FEF7AEFD41EC180B53EC182B16A054
:1016D000FFF72EFA002FB0DC20692861284601F0C0
:1016E00015FC6169884204D014A0FFF721FA052097
:1016F0007CE730467AE70000536F757263652043DC
:1017000052433A25303858204352433A253038580E
:10171000206572726F722E0D0A0000005C3700089F
:10172000200400200000C8427570646174653A208E
:10173000252E326625250D0A00000000E59BBAE43F
:10174000BBB6E68BB7E8B49DE5908EEFBC8CE6A007
:10175000A1E9AA8CE79BAEE6A087E58CBAE59F9F3E
:10176000E696B0E59BBAE4BBB6435243E5A4B1E8C4
:10177000B4A52E0D0A00000010B5002401F03AFDBA
:101780004FF400720349044800F02CF80446204648
:1017900010BD000020020020004000082DE9F041AB
:1017A00004460E4615463746002D03DB60190B49EB
:1017B000884207D32A4621460948FFF7B9F9012094
:1017C000BDE8F08103E014F8010B07F8010B281EB7
:1017D000A5F10105F7DC0020F2E700000000080891
:1017E000CC3600082DE9F04704460F461546B846AA
:1017F0000026B146002D03DB60193149884207D32A
:101800002A4621462F48FFF793F90120BDE8F087CB
:1018100000F0E2FD40F2053000F0EAFC4FF44170C8
:1018200000F0E6FC40F2023000F0E2FC40E0C4F3DD
:101830000A0010BB4FF0080900BF204600F05AFD17
:1018400028B1A9F1010040B2B0F10009F5D140F290
:10185000053000F0CDFC4FF4417000F0C9FC40F2BF
:10186000023000F0C5FCB9F1000F06D1214616A0E8
:10187000FFF75EF946F002061CE038F8021B20462E
:1018800000F0C6FC30B121461DA0FFF751F946F02B
:1018900004060FE040F2053000F0AAFC4FF441705E
:1018A00000F0A6FC40F2023000F0A2FCA41CAD1E29
:1018B000002DBCDC00BF00F007FD3046A6E70000AD
:1018C000000008081437000863466C61736857729B
:1018D000697465446174617320666D635F706167EC
:1018E000655F657261736520616464723A20307867
:1018F00025303858206572726F722E0D0A00000074
:1019000063466C617368577269746544617461738E
:101910002048414C5F464C4153485F50726F67729C
:10192000616D20616464723A203078253038582027
:101930006572726F72210D0A0000000010B590B040
:1019400040216846FEF72BFC00244FF480722149A9
:10195000D00200F03DF9FC221E49002001F036FBC8
:101960001C49D1F8FC10884200D001241A48039089
:101970001848806804900120029034B9684601F04C
:10198000C5FA1449C968884200D002247CB91148BC
:10199000B0F8520020F020000E49A1F8520008468D
:1019A000B0F8520040F01000A1F852000EE00948D3
:1019B000B0F8520020F010000649A1F85200084685
:1019C000B0F8520040F02000A1F85200204610B0BC
:1019D00010BD0000200800200001080030B591B0C3
:1019E000402101A8FEF7DBFB00250024FFF7A6FF3E
:1019F000051E54D12B48B0F8520040F0020029498E
:101A0000A1F85200012500BF29E02649803151F894
:101A1000341041F40020402201A900F0D9F8E0B9C7
:101A2000BDF8080030B1012812D0022811D00328D7
:101A300010D100E000BF1B48803050F8340040F463
:101A400000204030049001A800F032F8054603E081
:101A500002E001E0032500BF00BF601C44B2114852
:101A600090F85000A042D0DC0E48B0F8520020F0B0
:101A700002000C49A1F852008DB900BFBFF34F8F8F
:101A80000948006800F4E06008490843001D064961
:101A90000860BFF34F8F00BF00BF00BFFDE72846BF
:101AA00011B030BD200800200CED00E00000FA0568
:101AB00070B5054600F034FF04460026A88820B122
:101AC000A888032801D0012070BDA888C0B9294684
:101AD00004F5C070FFF778FD061E3ED1402229466E
:101AE00004F5C070FEF742FB4FF4C470005940F09B
:101AF00004014FF4C4700151FFF73EFE06462CE08E
:101B0000A888032829D1294604F14000FFF75CFD8D
:101B1000061E0CD14022294604F14000FEF726FBA8
:101B2000A06C40F00401A164FFF726FE064629469A
:101B300004F18000FFF748FD061E0ED14022294621
:101B400004F18000FEF712FB8820005940F00401E8
:101B500088200151FFF710FE06463046B4E700002A
:101B600038B50446002000900025012001F078F9E6
:101B7000012800D138BD01F029FB012001F070F9E6
:101B8000012801D10220F5E74FF480510E48FEF7FD
:101B900035FE200C8DF80000200A8DF80100E0B21F
:101BA0008DF802002021094801F090F903226946CE
:101BB000064800F00AF905434FF48051024800F04E
:101BC0004BFC2846D6E70000000C014000380040DE
:101BD0002DE9F04704460F4615460026B846B146A3
:101BE00016E0E0B2C0F58070A84203D2E0B2C0F5C2
:101BF000807000E02846064632464146204600F006
:101C00000DF810B149F0010904E03444AD1BB044B3
:101C1000002DE6DC00BF4846BDE8F087F8B5044675
:101C20000E461746002000900025012001F018F90B
:101C3000012800D1F8BD4FF480511148FEF7DEFDB8
:101C4000200C8DF80000200A8DF80100E0B28DF81C
:101C5000020003210B4801F039F9032269460948C3
:101C600000F0B3F805433A463146064800F07CF8E8
:101C700005434FF48051024800F0EEFB2846D9E7B7
:101C8000000C0140003800402DE9F047044688462A
:101C900015460026C146002720E0C4F30B0030B9EA
:101CA0002046FFF75DFF10B147F0010718E0E0B2F2
:101CB000C0F58070A84203D2E0B2C0F5807000E0A9
:101CC0002846064632464946204600F00DF810B137
:101CD00047F0020704E03444AD1BB144002DDCDCC6
:101CE00000BF3846BDE8F087F8B504460E461746F3
:101CF000002000900025012001F0B2F8012800D159
:101D0000F8BD01F063FA012001F0AAF8012801D121
:101D10000220F5E74FF480511148FEF76FFD200CCB
:101D20008DF80000200A8DF80100E0B28DF8020065
:101D300002210C4801F0CAF803226946094800F064
:101D400044F805433A463146064800F03EF805435C
:101D50004FF48051024800F07FFB2846D0E7000096
:101D6000000C0140003800402DE9F04107460C46C8
:101D7000164625464FF000081CB94FF0FF30BDE86D
:101D8000F0811CE000BF0221384600F0E0FE002890
:101D9000F9D04FF6FF71384600F0D7FE00BF0121A1
:101DA000384600F0D4FE28B98021384600F0CFFE36
:101DB0000128F4D0384600F0C4FE05F8010B301EAF
:101DC000A6F10106DEDC4046D9E72DE9F0410746E1
:101DD0000C46164625464FF000081CB94FF0FF3060
:101DE000BDE8F0811AE000BF0221384600F0AFFEE6
:101DF0000028F9D015F8011B384600F0A6FE00BFF8
:101E00000121384600F0A3FE28B98021384600F0B1
:101E10009EFE0128F4D0384600F093FE301EA6F155
:101E20000106E0DC4046DBE71FB500200090019092
:101E30000290039040F2047000F04EFE184800F04B
:101E40003BFF184800681849B0FBF1F0401E80B213
:101E5000ADF800004FF6FF7002900020ADF80200D0
:101E6000ADF80400ADF806008DF80C0069460C488A
:101E700000F096FF01210A4800F0E2FF0121084826
:101E800000F0DAFF00221146362000F0D5FC0448AD
:101E900000F00CFF024800F07DFF002004B010BDF0
:101EA000001000400000002040420F0070B50546C1
:101EB0000C462146284600F02DF908B900BFFEE780
:101EC00004EB8400810005F10800405820F0010176
:101ED00004EB8400820005F10800815070BD70B5EC
:101EE00005460C462146284600F014F908B900BF03
:101EF000FEE704EB8400810005F10800405840F043
:101F0000010104EB8400820005F10800815070BDDE
:101F100070B505460C462146284600F0FBF808B986
:101F200000BFFEE704EB8400810005F10800405883
:101F300020F0200104EB8400820005F108008150AC
:101F400070BD70B505460C462146284600F0E2F803
:101F500008B900BFFEE704EB8400810005F108002A
:101F6000405840F0200104EB8400820005F1080095
:101F7000815070BD70B504460D462946204600F0DC
:101F8000C9F808B900BFFEE705EB8500810004F140
:101F90000800405820F0010105EB8500820004F1A3
:101FA00008008150002105EB8500820004F1080043
:101FB000815005EB8500820004F10C00815005EB97
:101FC0008500820004F11000815005EB850082003D
:101FD00004F1140081506068AA000F219140084369
:101FE000606070BD2DE9F04104460D461646294655
:101FF000204600F08FF808B900BFFEE705EB85002A
:10200000820004F110003168815005EB85008200E8
:1020100004F11400B1688150308A81B205EB85006B
:10202000820004F10C00815005EB8500810004F171
:102030000800475827F47C57F168706808437169B5
:102040000843074305EB8500810004F10800475071
:10205000307E01280ED105EB8500810004F10800D7
:10206000405840F0400105EB8500820004F1080073
:1020700081500DE005EB8500810004F10800405817
:1020800020F0400105EB8500820004F1080081503A
:10209000707E01280ED105EB8500810004F1080057
:1020A000405840F0800105EB8500820004F10800F3
:1020B00081500DE005EB8500810004F108004058D7
:1020C00020F0800105EB8500820004F108008150BA
:1020D000B07E70B905EB8500810004F1080040581E
:1020E00020F0100105EB8500820004F1080081500A
:1020F0000DE005EB8500810004F10800405840F038
:10210000100105EB8500820004F108008150BDE854
:10211000F081000002460120034B9A4202D10429BB
:1021200000DD0020704700000004024008B900BF35
:10213000FEE700210160416001768160C160417667
:10214000016181764161704700B50346012200BFFD
:1021500000F00CF802465B1E012A01D1002BF7D1DA
:10216000012A00D10422104600BD000000200A49C7
:10217000C96801F0010109B101200CE00649C968F4
:1021800001F0100109B1032005E00349C96801F01D
:10219000040101B1022070470020024000B503464F
:1021A000012200BF00F00CF802465B1E012A01D19B
:1021B000002BF7D1012A00D10422104600BD0000F7
:1021C00000200A49C96C01F0010109B101200CE0AD
:1021D0000649C96C01F0100109B1032005E003496B
:1021E000C96C01F0040101B10220704700200240D7
:1021F000064A02EB9011096800F01F0301229A4081
:102200001143024B03EB9012116070470020024013
:1022100070B504460D46002627480088B0F5007FBB
:1022200031D92648844217D22548FFF78DFF06464C
:10223000002E3ED12348006940F001002149086189
:1022400025801F48FFF780FF06461E48006920F0E2
:1022500001001C4908612CE01948FFF79FFF064662
:102260003EBB1848006D40F0010016490865258006
:102270001348FFF793FF06461248006D20F0010057
:102280001049086515E00E48FFF75EFF064686B95F
:102290000C48006940F001000A490861258008489F
:1022A000FFF752FF06460748006920F00100054984
:1022B0000861304670BD0000E0F7FF1FFFFF070810
:1022C0000000FF0F002002400848006940F0800035
:1022D0000649086106480088B0F5007F04D9084621
:1022E000006D40F08000086570470000002002404B
:1022F000E0F7FF1F30B5054633480088B0F5007F92
:1023000044D9324885421CD23148FFF71DFF0446AC
:10231000002C56D12F48006940F002002D49086179
:1023200008464561006940F0400008612848FFF711
:102330000BFF04462748006920F002002549086188
:102340003FE02348FFF72AFF0446002C39D12148FB
:10235000006D40F002001F49086508464565C069E8
:1023600000F0020008B1084645611A48006D40F0CF
:102370004000184908651648FFF710FF0446154845
:10238000006D20F00200134908651AE01048FFF7BD
:10239000DBFE0446ACB90F48006940F002000D496D
:1023A000086108464561006940F04000086108483E
:1023B000FFF7CAFE04460748006920F002000549FD
:1023C0000861204630BD0000E0F7FF1FFFFF07084F
:1023D0000000FF0F002002400C48006900F0800060
:1023E00020B10B48094948600A4848600A480088FB
:1023F000B0F5007F09D90548006D00F0800020B1DC
:10240000034802494864034848647047002002407A
:1024100023016745AB89EFCDE0F7FF1F70B5044698
:102420000D4600BF07210B4800F099FE60B909482E
:102430000C30006800F4005030B106480C300068E1
:1024400000F008000028EDD1E0B20249091D086043
:10245000204670BD0038014001617047F0B5044668
:1024600016460025002201F00F0501F0100747B1C4
:10247000042E05D145F00305E76B1F43E76300E039
:10248000354300201EE0012787401F40C7B1226866
:102490004FEA800C0F2707FA0CF7BA43870005FABA
:1024A00007F73A43282904D1012787401F40676175
:1024B00005E0482903D1012787401F40276122609A
:1024C000471CB8B20828DED3082022E00127874045
:1024D0001F40E7B16268A0F108074FEA870C0F2799
:1024E00007FA0CF7BA43A0F10807BF0005FA07F78F
:1024F0003A43282904D1012787401F40676105E03E
:10250000482903D1012787401F4027616260471C8B
:10251000B8B21028DAD3F0BDF0B50A460023002483
:102520000021002500F00046B6F1004F02D11D4EFB
:10253000F16901E01B4E7168C0F3034583B200F4FA
:102540004016B6F5401F08D121F0E061154E7668BF
:1025500026F0E066134F7E6012E000F48016B6F5B8
:10256000801F06D1032606FA05F4A14341F0E0617D
:1025700006E0460D360103FA06F6B14341F0E0618C
:1025800022B1460D360103FA06F6314300F000464B
:10259000B6F1004F02D1034EF16101E0014E7160CE
:1025A000F0BD00000000014087B0002105910691B8
:1025B0000391049101210020CDE9011000900AE06F
:1025C0000F4803C8CDE903010E48406A00900C484B
:1025D00003C8CDE90101DDE90132DDE9030158401D
:1025E00051400843ECD1DDE903310098181841F15E
:1025F0000001CDE90501DDE9050107B070470000E4
:10260000080000200010004000F062FEFEF7F4FE1B
:102610004FF4106000F050FAFEF75CF94FF4407090
:1026200000F06CF94FF4C06000F056FA012139480F
:10263000FFF772FFFFF7F8FB00F05AFF01F000F818
:1026400000F06AF90446214633A0FEF771FA00F063
:102650005FF90446214638A0FEF76AFA3D48016852
:102660003DA0FEF765FA002000F068F90446214617
:102670003FA0FEF75DFA012000F060F90446214614
:102680003FA0FEF755FA022000F058F90446214613
:102690003FA0FEF74DFA032000F050F90446214612
:1026A0003FA0FEF745FA40F61F1000F0F3F910B115
:1026B0003FA0FEF73DFA40F61E1000F0EBF910B116
:1026C00040A0FEF735FA40F61D1000F0E3F910B116
:1026D00043A0FEF72DFA40F61C1000F0DBF910B114
:1026E00046A0FEF725FA40F61B1000F0D3F910B112
:1026F00046A0FEF71DFA40F61A1000F0CBF910B113
:1027000048A0FEF715FA00F00FF900F08FFE00BFA9
:10271000FEE70000000230000A0A0D426F6F7420CD
:10272000736F6674776172652076657273696F6E18
:102730003A2025730D0A0000426F6F7420736F6694
:10274000747761726520646174653A2025730D0A9F
:102750000A0000000000002053797374656D436F18
:102760007265436C6F636B3A2025640D0A000000AC
:10277000434B5F5359532069732025640D0A0000B1
:10278000434B5F4148422069732025640D0A0000D5
:10279000434B5F415042312069732025640D0A008C
:1027A000434B5F415042322069732025640D0A007B
:1027B000E4BD8EE58A9FE88097E5A48DE4BD8D5C3D
:1027C000720A0000E7AA97E58FA3E79C8BE997A818
:1027D000E78B97E5A48DE4BD8D5C720A00000000D4
:1027E000E78BACE7AB8BE79C8BE997A8E78B97E58A
:1027F000A48DE4BD8D5C720A00000000E8BDAFE46A
:10280000BBB6E5A48DE4BD8D0D0A0000E68E89E718
:1028100094B52FE4B88AE794B5E5A48DE4BD8D0D99
:102820000A0000004E525354E5BC95E8849AE5A492
:102830008DE4BD8D0D0A00002DE9F04103460D46E3
:10284000164600240027A0462A48006800F4E060ED
:10285000B0F5E06F03D100BF4FF0040830E0254829
:10286000006800F4E060B0F5C06F03D101274FF0BD
:10287000030825E01F48006800F4E060B0F5A06F91
:1028800002D10227B8461BE01A48006800F4E06055
:10289000B0F5806F03D103274FF0010810E0154811
:1028A000006800F4E060B0F5407F03D104274FF0EA
:1028B000000805E04FF4A06000F020F80227B846B9
:1028C000C7F1040005FA00F4C8F104010F20C84064
:1028D0003040044324010848C45403F01F01012080
:1028E00088405911890001F1E021C1F80001BDE8DB
:1028F000F08100000CED00E000E400E0024901433B
:10290000024A1160704700000000FA050CED00E07B
:102910000048704740080008004870472008000839
:1029200000487047200200200348406A40F0807051
:102930000149486270470000001002402DE9F04F45
:102940008CB0074600200A904AA090E8004CC0686E
:10295000CDE905BECDF810A007900FF21C1ADAE9F8
:10296000000ACDE9020A0FF2101ADAE9000ACDE9ED
:10297000000A44484068C0F381000B900B9820B1D6
:10298000012804D002283FD103E03F4A3EE03E4AFE
:102990003CE03C48406800F4803CBCF5803F12D1EC
:1029A0003848C06A00F08048B8F1000F01D1364BBA
:1029B00000E0364B3348406800F40039B9F5003F79
:1029C00002D15B0800E0324B2E484068C0F38341DF
:1029D0002C48406800F0006008B141F0100129481F
:1029E000406800F0804008B141F020010F2901D279
:1029F000891C06E00F2903D33E2901D8491C00E0B9
:102A00003F2103FB01F201E01F4A00BF00BF1D4848
:102A10004068C0F3031504A8465D22FA06F419487D
:102A20004068C0F3022502A8465D24FA06F009902A
:102A300014484068C0F3C2251DF8056024FA06F06A
:102A4000089037B1012F06D0022F06D0032F0AD1EC
:102A500006E00A9208E00A9406E009980A9003E06A
:102A600008980A9000E000BF00BF0A980CB0BDE8CB
:102A7000F08F0000000000000000000001020304CD
:102A8000060708090010024000127A00006CDC0200
:102A900000093D000146074A02EB9110006801F071
:102AA0001F0301229A40104008B101207047002006
:102AB000FCE7000000100240064A02EB9011096892
:102AC00000F01F0301229A401143024B03EB9012C6
:102AD0001160704700100240064A02EB901109682D
:102AE00000F01F0301229A401143024B03EB9012A6
:102AF0001160704700100240064A02EB901109680D
:102B000000F01F0301229A409143024B03EB901205
:102B10001160704700100240064A02EB90110968EC
:102B200000F01F0301229A401143024B03EB901265
:102B30001160704700100240016841F040010160DF
:102B400070470146C86880B27047C160704702464E
:102B50009068084008B1012070470020FCE7024659
:102B60000020106800F441500B6818434B6818436C
:102B70008B681843CB6818430B6918434B6918439B
:102B80008B6918431060D36923F40063D3617047E5
:102B9000002000213F4A126842F480323D4B1A6007
:102BA00000BF401C3B4A126802F4003119B94FF6CD
:102BB000FF729042F5D1374A126802F400320AB926
:102BC00000BFFEE7334AD26942F08052314BDA61EE
:102BD000314A126842F440422F4B1A602D4A526823
:102BE0002C4B5A601A4652685A601A46526842F490
:102BF00080625A601A46526822F440325A601A467D
:102C0000526842F440325A601A465268234B1A40C6
:102C1000204B5A601A465268214B1A431D4B5A608A
:102C20001A46126842F080721A6000BF194A126890
:102C300002F00072002AF9D0174A126842F480327A
:102C4000154B1A6000BF144A526802F48032002A01
:102C5000F9D0114A126842F400320F4B1A6000BFDB
:102C60000D4A526802F40032002AF9D0094A52682B
:102C700022F00302074B5A601A46526842F00202E1
:102C80005A6000BF034A526802F00802002AF9D0D5
:102C9000704700000010024000700040FFFFC3B703
:102CA0000000340810B5FFF773FF10BD016841F054
:102CB000800101607047000010B504463349601A76
:102CC0008C4244D00CDCB4F1804F1CD030482044FE
:102CD00010B3B0F5806F28D0B0F5006F52D12DE061
:102CE000B0F5806F3CD0B0F58E3F03D0B0F5923F89
:102CF00048D13EE040F20B30FFF70EFF40F20B30C0
:102D0000FFF7FAFE3FE04FF48060FFF705FF4FF456
:102D10008060FFF7F1FE36E040F20140FFF7FCFE75
:102D200040F20140FFF7E8FE2DE040F20240FFF7DD
:102D3000F3FE40F20240FFF7DFFE24E040F20340E2
:102D4000FFF7EAFE40F20340FFF7D6FE1BE040F239
:102D50000440FFF7E1FE40F20440FFF7CDFE12E031
:102D600040F20540FFF7D8FE40F20540FFF7C4FEF1
:102D700009E040F20D30FFF7CFFE40F20D30FFF7D3
:102D8000BBFE00E000BF00BF10BD0000001000400F
:102D900000FCFFBF016841F00101016070470000C5
:102DA0000A8882621D4A90420ED0B0F1804F0BD04B
:102DB0001B4A904208D01B4A904205D01A4A9042C2
:102DC00002D01A4A90420BD1026822F070020260CF
:102DD00002684B881A43026002688B881A430260BB
:102DE0008A68C262124A90420AD0124A904207D0C0
:102DF000026822F4407202600268CB881A430260C3
:102E0000064A904202D0094A904201D10A7B0263ED
:102E1000426942F00102426170470000002C01400B
:102E20000004004000080040000C00400034014055
:102E30000010004000140040C2680A43C26070479E
:102E4000CA43026170470246D06800EA0103106974
:102E5000084010B10BB1012070470020FCE70000D2
:102E600070B5044640F6B836002515480078C828E5
:102E700001D0E0B270BD1BE04FF480511148FDF766
:102E8000BDFC0521104800F021F8FF210E4800F09C
:102E90001DF805464FF480510A48FFF7DDFA05EAB0
:102EA0000400A04200D006E0B2EE040A00F034FBB9
:102EB000701E061EE0D100BF05EA0400DAE700003C
:102EC00004000020000C01400038004070B50546A9
:102ED0000C4600BF02212846FFF739FE0028F9D032
:102EE00021462846FFF731FE00BF01212846FFF7A3
:102EF0002EFE28B980212846FFF729FE0128F4D0AC
:102F00002846FFF71EFEC4B2204670BD2DE9F843E7
:102F100004464FF00008002500264FF6FF70009091
:102F2000002714B90120BDE8F8832069B0F5801F9F
:102F300001D90220F7E7D4F80C80256922E0B5F525
:102F4000806F02DD4FF4806000E028460646207A5C
:102F500000F0010030B132460D494046FEF738FE20
:102F6000074305E032460A494046FEF717FC07438F
:102F700007B109E032460649684600F027F800909C
:102F8000B044AD1B002DDADC00BFBDF80000CAE77D
:102F90002004002008B5002000904FF4805109481B
:102FA000FDF72CFC9F210848FFF790FF032269469C
:102FB0000548FEF7D9FE4FF480510248FFF74CFA5E
:102FC000009808BD000C014000380040F0B50446F0
:102FD0000B464AF201064FF6FF7100250BB900209F
:102FE000F0BD04B121880FE013F8010B4140012529
:102FF00008E001F0010010B186EA610100E049102B
:103000006806050E002DF4D1101EA2F10102EBDCC2
:103010000846E5E72DE9F04704460D460027B84687
:10302000B94600261D49601A8C421CD006DC1C489B
:10303000204470B1B0F5806F1FD10FE0B0F5806F04
:1030400016D0B0F56C4F18D10320FFF777FC074678
:1030500014E00220FFF772FC07460FE00220FFF7A2
:103060006DFC07460AE00220FFF768FC074605E012
:103070000220FFF763FC074600E000BF00BF07EB3C
:103080005500B0FBF5F64FF6F07006EA000806F0C2
:103090000F0948EA0900A060BDE8F087004C004035
:1030A00000BCFFBF10B504462049601A8C4228D0EE
:1030B00006DC1F48204490B1B0F5806F33D117E093
:1030C000B0F5806F26D0B0F56C4F2CD140F20E30A9
:1030D000FFF722FD40F20E30FFF70EFD24E040F234
:1030E0001140FFF719FD40F21140FFF705FD1BE00D
:1030F00040F21240FFF710FD40F21240FFF7FCFCD7
:1031000012E040F21340FFF707FD40F21340FFF7D3
:10311000F3FC09E040F21440FFF7FEFC40F21440DB
:10312000FFF7EAFC00E000BF00BF10BD004C00400C
:1031300000BCFFBF0A460021416921F04001114354
:10314000416170470A460021416921F08001114325
:1031500041617047C16841F40051C160704710B5CA
:10316000024602EB9110006801F01F040123A34006
:10317000184008B1012010BD0020FCE7C26822F40D
:10318000C062C260C2680A43C26070470A4600213A
:10319000C16821F004011143C1607047026922F443
:1031A0004052026102690A43026170470A460021E7
:1031B000C16821F008011143C1607047C26822F460
:1031C0008052C260C2680A43C260704710B54FF4B3
:1031D00080510648FDF712FB06210548FFF776FEF1
:1031E0004FF480510148FFF737F910BD000C014042
:1031F000003800401D481E49C8600846806820F01D
:10320000010088601B491A48C164806C20F00101EC
:10321000174881644FF4B031C0F88C10D0F88800A2
:1032200040F001011248C0F888101349C0F80C1191
:10323000D0F8080120F001010D48C0F808114FF442
:103240001831C0F84C11D0F8480120F001010848AD
:10325000C0F848114FF41831C0F88C11D0F888012B
:1032600040F001010248C0F8881170470060000872
:10327000200200200060010800600208102816D01B
:1032800006DC012809D002280AD004281BD10AE054
:10329000202810D0402816D111E00C4A916013E08C
:1032A0000A4A916410E0094AC2F888100CE0074A03
:1032B000C2F8081108E0054AC2F8481104E0034AC0
:1032C000C2F8881100E000BF00BF70472002002054
:1032D00010B54FF4007203490348FEF75FFAFFF799
:1032E00089FF10BD200200200040000810B540F208
:1032F0000660FFF7F1FB10210448FFF7ADF810233B
:10330000022248210148FFF7A9F810BD001801402A
:1033100010B540F20360FFF7DFFB402303221021CA
:103320000348FFF79BF86FF0004000F003F810BD72
:10333000000C014010B5044604F0010018B1402112
:103340000148FFF789F810BD000C014000B587B0B7
:103350001C216846FCF723FF40F20360FFF7BCFB2B
:1033600040F20E70FFF7B8FB4FF420430322182100
:103370001748FFF773F84FF48043032204211448E1
:10338000FFF76CF84FF48053032210211048FFF729
:1033900065F84FF480510E48FFF75EF80020019069
:1033A0004FF48270009000200290032005904FF4AB
:1033B0000070039020200690002004906946054884
:1033C000FFF7CDFB0348FFF7B7FB07B000BD0000D8
:1033D000000C01400038004010B5FFF7B7FF4FF474
:1033E00080510F48FDF70AFA66210E48FFF76EFD7F
:1033F0004FF480510A48FFF72FF84FF480510848E6
:10340000FDF7FCF999210748FFF760FD4FF4805163
:103410000348FFF721F8FFF7BDFD0349086010BD21
:10342000000C0140003800400400002000F046F984
:1034300017A0FDF77DFBFDF7FBFF98B9FEF79CF9A0
:1034400000BFBFF34F8F1848006800F4E0601749D1
:103450000843001D14490860BFF34F8F00BF00BF31
:1034600000BFFDE712A0FDF763FB1948FDF760FB05
:10347000FEF7B4FA17A0FDF75BFB07E06FF0004022
:10348000FFF758FF9FED190A00F034F8F6E7000047
:1034900053797374656D496E6974207375636365E0
:1034A00065642E0D0A0000000CED00E00000FA0536
:1034B0000A0D626F6F746C6F6164657220E69BB475
:1034C000E696B0E5A4B1E8B4A52E0D0A0000000010
:1034D000A03700080A0DE8A7A3E58C85E8BF98E5AA
:1034E0008E9FE5A4B1E8B4A52E0D0A000000FA43B2
:1034F0007047000010B52DED028BB0EE408ADFED75
:10350000050A68EE200AB0EE600A00F005F8BDEC8E
:10351000028B10BD00007A4410B52DED028B84B0F3
:10352000B0EE408A002102910391002000900190AA
:10353000B7EE000AB4EEC08AF1EE10FA03D204B07E
:10354000BDEC028B10BDFFF72FF8CDE90001DDE9DE
:103550000001FCF72FFE00EE100A30EE080A10EE14
:10356000104A2046FCF73CFECDE9020100BFFFF700
:103570001BF8DDE90232C01A9141F8DB00BFDEE73B
:1035800000B587B01C216846FCF709FE4FF4A06027
:10359000FFF7A2FA03212748FEF7ECFC6846FEF786
:1035A000C5FD01208DF81A000020029001208DF841
:1035B00019000020039004901F48009000208DF80F
:1035C000180001904FF4405005906A4603211948B5
:1035D000FEF708FD03211748FEF79AFC0321154862
:1035E000FEF764FC80211448001FFFF7ABFD0421A7
:1035F0001048FEF7BFFC00208DF81A000F4802901B
:103600004FF4007004900C4800906A460421094869
:10361000FEF7E8FC04210748FEF793FC0421054867
:10362000FEF75DFC40210448001FFFF783FD07B053
:1036300000BD000000000240043801401C000020D2
:1036400010B540F20260FFF747FA40F20E60FFF754
:1036500043FA4FF40073032218211648FEF7FEFECA
:103660004FF48063032204211248FEF7F7FE12484C
:10367000FFF718FD4FF4E1310F48FFF7CBFC0021B5
:103680000D48FFF79BFD00210B48FFF787FD002148
:103690000948FFF773FD04210748FFF777FD08216C
:1036A0000548FFF783FDFFF76BFF0348FFF752FD67
:1036B00010BD0000000801400038014010B5FFF7C0
:1036C00027FEFFF713FEFFF787FE10BD63466C6110
:1036D0007368526561644461746173207569416403
:1036E00064726573733A202530385820694C656ED2
:1036F0006774683A202564203E3D20464C4153487B
:103700005F555345525F4D41585F414444522E0D21
:103710000A00000063466C617368577269746544FF
:1037200061746173207569416464726573733A20D2
:103730002530385820694C656E6774683A202564D6
:10374000203E3D20464C4153485F555345525F4D06
:1037500041585F414444522E0D0A00007570646167
:10376000746520736F7572636520616464723A20BA
:103770003078253038582C20746172676574206168
:103780006464723A203078253038582C2066696C91
:10379000652073697A653A2025640D0A00000000EF
:1037A0000A0DE5B09DE8AF95E68A8AE5A496E9831F
:1037B000A82053504920466C61736820E5AD98E518
:1037C00082A8E79A84E59BBAE4BBB6E58C85EFBC9A
:1037D0008CE8BF9BE8A18CE8A7A3E58C85E8BF989F
:1037E000E58E9F2E0D0A000008380008000000201A
:1037F0001C000000500B0008243800081C000020AA
:10380000040D00005E0B0008000E270700000000FA
:1038100000000000000000000000000000000000A8
:0438200000000000A4
:0400000508000131BD
:00000001FF
:020000040800F2
:1040000046494C4500000000000000000000000090
:1040100000000000214334120000000000000000F6
:104020000000000000000000000000000000000090
:104030000000000000000000000000000000000080
:1040400046494C4500000000000000000000000050
:1040500000000000214334120000000000000000B6
:104060000000000000000000000000000000000050
:104070000000000000000000000000000000000040
:1040800046494C4500000000000000000000000010
:104090000000000021433412000000000000000076
:1040A0000000000000000000000000000000000010
:1040B0000000000000000000000000000000000000
:1040C00000000000000000000000000000000000F0
:1040D00000000000000000000000000000000000E0
:1040E00000000000000000000000000000000000D0
:1040F00000000000000000000000000000000000C0
:1041000046494C450000000000000000000000008F
:1041100000000000214334120000000000000000F5
:10412000000000000000000000000000000000008F
:10413000000000000000000000000000000000007F
:1041400046494C450000000000000000000000004F
:1041500000000000214334120000000000000000B5
:10416000000000000000000000000000000000004F
:10417000000000000000000000000000000000003F
:1041800046494C450000000000000000000000000F
:104190000000000021433412000000000000000075
:1041A000000000000000000000000000000000000F
:1041B00000000000000000000000000000000000FF
:1041C00000000000000000000000000000000000EF
:1041D00000000000000000000000000000000000DF
:1041E00000000000000000000000000000000000CF
:1041F00000000000000000000000000000000000BF
:00000001FF
:020000040800F2
:1060000060BC002009620008FD670008D567000831
:106010001D690008AD670008556F0008000000000A
:1060200000000000000000000000000049610008BE
:10603000D167000800000000A5610008456900085C
:10604000236200082362000823620008236200081C
:10605000236200082362000823620008236200080C
:1060600023620008236200082362000823620008FC
:1060700023620008236200082362000823620008EC
:1060800023620008236200082362000823620008DC
:1060900023620008236200082362000823620008CC
:1060A00023620008236200082362000823620008BC
:1060B00023620008236200082362000823620008AC
:1060C000236200082362000823620008236200089C
:1060D00023620008AD6B0008E56C00081D6E000827
:1060E000236200082362000823620008236200087C
:1060F000236200082362000823620008236200086C
:10610000236200082362000823620008236200085B
:1061100023620008236200085D6B00082362000808
:10612000236200082362000823620008236200083B
:10613000DFF810D000F0F6FA00480047319B000865
:10614000AFF3008060BC00202C4B19680868B0E8F1
:10615000F04F80F30988BFF36F8F4FF0000080F39A
:10616000118870470000000008480068006880F34C
:1061700008884FF0000080F3148862B661B6BFF360
:106180004F8FBFF36F8F00DF00BF00BF08ED00E04F
:10619000DFF80C00016841F470010160704700BF36
:1061A00088ED00E0EFF30980BFF36F8F134B1A689F
:1061B0001EF0100F08BF20ED108A20E9F04F10608C
:1061C00009B44FF05F0080F31188BFF34F8FBFF326
:1061D0006F8F07F0B7FB4FF0000080F3118809BC08
:1061E00019680868B0E8F04F1EF0100F08BFB0EC57
:1061F000108A80F30988BFF36F8F7047000000207A
:10620000EFF30580704700000648804706480047C6
:10621000FEE7FEE7FEE7FEE7FEE7FEE7FEE7FEE756
:10622000FEE7FEE7B56A0008316100082DE9F0419C
:106230000024061B254671F1000605DA012400271B
:10624000D0EB070067EB0101161E73F1000605DABB
:106250000027D2EB0702012567EB030300F078F873
:1062600086460E4617469C46AC4204D00025D0EB2D
:10627000050E65EB010624B10020D2EB000760EBB0
:10628000030C704631463A466346BDE8F08140EA69
:1062900001039B0703D009E008C9121F08C0042AA4
:1062A000FAD203E011F8013B00F8013B521EF9D28B
:1062B0007047D2B201E000F8012B491EFBD27047B3
:1062C0000022F6E710B513460A4604461946FFF7C2
:1062D000F0FF204610BD421C10F8011B0029FBD125
:1062E000801A704730B504460020034600E05B1C6E
:1062F000934203D2E05CCD5C401BF8D030BD00F08F
:10630000004230F000400AD0C10D01F56071C0F3C9
:10631000160042EA0151C2084007114370470020AD
:106320000146704730B50B4601460020202201246B
:1063300009E021FA02F59D4205D303FA02F5491B53
:1063400004FA02F52844151EA2F10102F1DC30BD69
:106350002DE9F05F0546002092469B46884606469A
:10636000814640241BE0284641464746224600F02D
:10637000FAF953465A46C01A914110D311461846AD
:10638000224600F0E1F92D1A67EB01084F4622463C
:106390000120002100F0D8F917EB00094E41201E22
:1063A000A4F10104DFDC484631462A464346BDE8F5
:1063B000F09F2DE9FE4F804681EA0300C00F0C4696
:1063C000009021F0004123F00045B8EB0200A94104
:1063D00005D24046214690461C460B46024623F015
:1063E0000040104347D0270DC7F30A00C3F30A51FA
:1063F0000290401A019040286BDAC3F3130040F476
:10640000801B0098924620B10023D2EB030A63EB75
:106410000B0B01985946C0F14002504600F094F928
:1064200006460D4650465946019A00F0ACF910EB6D
:1064300008006141002487EA115284EAE7731A4395
:1064400040D0009A62B3019A012A4FEA075215DC44
:10645000001B61EB02014FF0004202EA0752CDE956
:106460000042001C41F5801132462B4600F007FA2D
:1064700003B0BDE8F08F40462146F9E7001B61EB11
:106480000201001C41F5801300185B412018A2F5A1
:10649000001747EB030140EAD570B6196D4111E0D2
:1064A0006D084FEA360645EAC0754FEA0752001BF1
:1064B00061EB0201001C41F5801149084FEA3000F0
:1064C0000019514132462B4603B0BDE8F04F00F0B1
:1064D000C7B90098012240000023D0EB020263EB11
:1064E000E073009821464FEAE074B8EB000061EBDE
:1064F0000401E9E783F000435BE781F0004158E7DE
:106500002DE9FE4F81EA030404F0004421F000412C
:1065100000944FF0000B23F0004350EA01045ED0DA
:1065200052EA03045BD0C3F30A54C1F30A552C4466
:10653000A4F2F3340194A0FB0254C1F3130141F41B
:106540008011C3F3130343F4801301FB024400FBE7
:10655000034E840A970A44EA815447EA8357A4FB0E
:10656000076802958D0A05FB07854FEA932C04FB0B
:106570000C542705029D4FEA065847EA1637B5EB3B
:1065800008056EEB070C870E920E47EA811742EA68
:106590008312A7FB0201B6EB0B0164EB00042B0D89
:1065A00043EA0C335E1844EB1C50DA465146E7FBD5
:1065B0000201C5F313044FEA0B3343EA14534FEAC5
:1065C0000432019C43EA0603A4F10C040294009CEB
:1065D000CDE900B400F053F903B0BDE8F08F00201E
:1065E0000146F9E72DE9F04D81EA030404F0004B80
:1065F00021F0004514464FF0000A23F0004150EA14
:10660000050220D054EA01021DD0C5F30A57024604
:10661000C5F31303C1F31300C1F30A5640F4801508
:1066200043F48013A7EB0608101BD64608F2FD388A
:1066300073EB050002D308F1010801E092185B41F9
:10664000B8F1000F03DA00200146BDE8F08D00200C
:106650004FF48011064684460EE0171B73EB0507C6
:1066600005D3121B63EB050306434CEA010C4908F2
:106670004FEA300092185B4150EA0107EDD152EA2F
:10668000030012D082EA040083EA0501084305D022
:10669000101BAB4106D20122002306E000224FF07E
:1066A000004302E06FF0010253101AEB06004CEBBE
:1066B000085110EB0A0041EB0B01BDE8F04D00F072
:1066C000CFB8C1F30A52C1F3130140F2FF3341F4D2
:1066D00080119A4202DA00200146704740F23343AB
:1066E0009A42A2F2334202DC524200F03CB800F07F
:1066F0002BB8000030B5041E71F1000404DB4FF02C
:106700000044404264EB0101141E73F1000405DBF8
:106710001C464FF00043524263EB0403994208BF0A
:10672000904230BD064C074D06E0E06840F00103A2
:1067300094E8070098471034AC42F6D3FFF7FCFC0E
:10674000A0F40008C0F40008202A04DB203A00FA74
:1067500002F1002070479140C2F1200320FA03F3B8
:10676000194390407047202A04DB203A21FA02F0B6
:106770000021704721FA02F3D040C2F1200291407B
:10678000084319467047202A06DBCB17203A41FA06
:1067900002F043EAE07306E041FA02F3D040C2F1AE
:1067A00020029140084319467047000002A000F003
:1067B000E5FB00BFFEE700000A0A0D2042757346A4
:1067C00061756C745F48616E646C65722E0A0A00B4
:1067D0007047000002A000F0D1FB00BFFEE7000000
:1067E0000A0A0D20486172644661756C745F4861E5
:1067F0006E646C65722E0A0A0000000070477047D4
:1068000030302E30312E303000000000000000000B
:106810000000000000000000000000000000000078
:1068200030302E30312E30310000000000000000EA
:106830000000000000000000000000000000000058
:106840004D61792031322032303233202D203137E2
:106850003A31373A313600000000000000000000F5
:1068600010B5141E73F1000408DA401C41F1000158
:1068700092185B411A4301D120F0010010BD2DE9AF
:10688000F04D92469B4611B1B1FA81F202E0B0FAA6
:1068900080F220329046FFF757FF04460F4640EA49
:1068A0000A0041EA0B0153465A46084313D01146E9
:1068B00053EA010019D0C8F140025046FFF753FFD8
:1068C00005460E46504659464246FFF73DFF0843EF
:1068D00005D0012004E020463946BDE8F08D0020B7
:1068E000054346EAE0762C4337430A986305E40AF9
:1068F000A0EB08000022FD0A44EA47540A3002D502
:1069000000200146E9E7010510196941DDE9084564
:1069100000196941BDE8F04DA2E7000002A000F0B7
:106920002DFB00BFFEE700000A0A0D204D656D4DEE
:10693000616E6167655F48616E646C65722E0A0AFC
:106940000000000010B500BF5F2080F31188BFF386
:106950004F8FBFF36F8F00BF08F000F918B14FF0F1
:1069600080500449086000BF002080F3118800BFF8
:1069700010BD000004ED00E02DE9FF470FF2101AF2
:10698000DAE900C8DAE9029ACDE900C8CDE9029A4D
:10699000DFF80CC1DCF804C0CCF3810727B1012F6C
:1069A00009D0022F58D10DE0DFF8F8C0DFF8F880E9
:1069B000C8F800C057E0DFF8ECC0DFF8EC80C8F89A
:1069C00000C050E0DFF8D8C0DCF804C00CF480341C
:1069D000B4F5803F14D1DFF8C8C0DCF82CC00CF04F
:1069E00080420AB92F4900E03049DFF8B4C0DCF832
:1069F00004C00CF40033B3F5003F02D1490800E0B5
:106A00002B49DFF89CC0DCF804C0CCF38340DFF8EE
:106A100090C0DCF804C00CF0006CBCF1000F01D099
:106A200040F01000DFF878C0DCF804C00CF0804CB7
:106A3000BCF1000F01D040F020000F2801D3401C12
:106A400000E0801C3D2800D93F2001FB00FCDFF85E
:106A50005880C8F800C006E0DFF848C0DFF848807A
:106A6000C8F800C000BF00BFDFF834C0DCF804C0C5
:106A7000CCF303151DF80560DFF82CC0DCF800C06E
:106A80002CFA06FCDFF82080C8F800C0BDE8FF87BC
:106A900000000000000000000102030406070809CE
:106AA0000010024000127A0074000020006CDC022A
:106AB00000093D0008B52648006840F470002449EC
:106AC00008602448006840F001002249086000BFC7
:106AD0002048006800F002000028F9D000BF1D48DF
:106AE000406840F080001B4948600020009002E0B0
:106AF0000098401C009000985028F9D31548406831
:106B000040F09000134948600020009002E0009897
:106B1000401C009000985028F9D300BF0D484068F1
:106B200020F003000B494860084600680A49084005
:106B3000084908604FF41F0088600846006820F488
:106B40008020086000204860C86204F00FF908BD8A
:106B500088ED00E000100240FFFFF6FE10B50121B5
:106B60000F4804F038FBC8B101210D4804F030FB98
:106B70000C48D0E900304FF480329A1840F1000000
:106B80000849C1E900200848D0E900304FF48031BD
:106B9000591840F10000044AC2E9001010BD00007D
:106BA00000100040B8000020C00000201CB53F4984
:106BB0003F4804F07AFD002842D023E03D480068B9
:106BC0003D49096888420DD23B480068C0F5007213
:106BD0003A48394B1B68C118394802F097FC00202D
:106BE0003549086033480068334B1B68C21A334884
:106BF000314B1B68C118324802F088FC2D480068F0
:106C00002D49086004212F4802F031FAC0F50070C8
:106C100028490860284909688842CFD1002000909F
:106C200001231A46014601902748006807F028FE14
:106C30001F4804F0A1FC1D491D4804F029FD33E064
:106C400009211B4804F0FBFC0821194804F0F7FC5B
:106C50000621174804F0F3FC0521154804F0EFFC69
:106C600042F20C21124804F0EAFC42F20B211048D7
:106C700004F0E5FC15490E4804F00AFD14490C48DF
:106C800004F006FD13490A4804F002FD12490848C1
:106C900004F0FEFC1149064804F0FAFC10490448CF
:106CA00004F0F6FC06F0DAFF1CBD0000040304004B
:106CB00000380140780000207C0000205C95002016
:106CC0005C88002000000240E00000200A05090066
:106CD00006040800060306000503050005200C2233
:106CE00004200B221CB53F493F4804F0DEFC00287D
:106CF00042D023E03D4800683D49096888420DD2F2
:106D00003B480068C0F500723A48394B1B68C1180F
:106D1000394802F0FBFB0020354908603348006821
:106D2000334B1B68C21A3348314B1B68C1183248B9
:106D300002F0ECFB2D4800682D49086005212F4822
:106D400002F095F9C0F500702849086028490968E3
:106D50008842CFD1002000900123022201460190F9
:106D60002748006807F08CFD1F4804F005FC1D490A
:106D70001D4804F08DFC33E009211B4804F05FFC42
:106D80000821194804F05BFC0621174804F057FC61
:106D90000521154804F053FC42F20C21124804F07E
:106DA0004EFC42F20B21104804F049FC15490E48F4
:106DB00004F06EFC14490C4804F06AFC13490A48BC
:106DC00004F066FC1249084804F062FC11490648C8
:106DD00004F05EFC1049044804F05AFC06F0E6FF9B
:106DE0001CBD00000403040000440040800000209B
:106DF00084000020609700203C84002000000240B6
:106E0000E00000200A050900060408000603060049
:106E10000503050005200C2204200B221CB53F4968
:106E20003F4804F042FC002842D023E03D4800687F
:106E30003D49096888420DD23B480068C0F50072A0
:106E40003A48394B1B68C118394802F05FFB0020F3
:106E50003549086033480068334B1B68C21A334811
:106E6000314B1B68C118324802F050FB2D480068B6
:106E70002D49086002212F4802F0F9F8C0F5007092
:106E800028490860284909688842CFD1002000902D
:106E900001230422014601902748006807F0F0FC16
:106EA0001F4804F069FB1D491D4804F0F1FB33E065
:106EB00009211B4804F0C3FB0821194804F0BFFB5B
:106EC0000621174804F0BBFB0521154804F0B7FB69
:106ED00042F20C21124804F0B2FB42F20B2110489E
:106EE00004F0ADFB15490E4804F0D2FB14490C48E0
:106EF00004F0CEFB13490A4804F0CAFB12490848C3
:106F000004F0C6FB1149064804F0C2FB10490448CE
:106F100004F0BEFB06F0F4FF1CBD000004030400F7
:106F200000480040880000208C0000206499002068
:106F30009C90002000000240E00000200A050900AB
:106F400006040800060306000503050005200C22C0
:106F500004200B2202A000F011F800BFFEE70000A1
:106F60000A0A0D2055736167654661756C745F4848
:106F7000616E646C65722E0A0A0000000FB4054B46
:106F800010B503A9044A029800F0ECF810BC5DF8B3
:106F900014FB0000C1980008000100200FB4084B4A
:106FA00010B504A902AA039800F0DCF8044602A96F
:106FB000002000F05AFC204610BC5DF814FB0000D5
:106FC0006B78000802E008C8121F08C1002AFAD135
:106FD0007047002001E001C1121F002AFBD1704759
:106FE0002DE9FF5F82B00021DDE90430020DDDF8FC
:106FF00040B0034318D044F61050A2F2FF3242438F
:107000001514119801281FD0A5EB0B00401C5FEA56
:10701000000A4FF000064E4FDFF83891B046504658
:1070200015D5CAF1000413E0119801244AA30128E0
:1070300001D16FEA0B010298119AC0E90031C0E951
:10704000024206B0BDE8F09FCBF10000DFE7044646
:107050000021404A491842EB0450CDE9001012E0EB
:10706000E00707D032463B4640464946FFF748FA1C
:107070008046894632463B4610461946FFF740FA9D
:1070800006460F466410002CEAD1DDE90401DDE973
:107090000023BAF1000F06DAFFF732FA42464B46F8
:1070A000FFF72EFA05E0FFF79DFA42464B46FFF741
:1070B00099FA04460E460022284BFFF71BFB03D823
:1070C0004FF0FF30014607E00022254B20463146B5
:1070D000FFF76FF9FFF7F5FA102409E0002C0ADB3F
:1070E0000A220023FFF734F9039B30321A55641E3D
:1070F00050EA0102F2D1641C039AC4F11103144452
:10710000119A012A03D0012208430DD10AE0084355
:1071100004D000204FF0110B119072E7A3EB0B0588
:107120006D1E0DE05B4504DD4FF0000205F1010529
:1071300004E003DA4FF00002A5F10105002AECD0CB
:1071400002981199C0E90231C0E9004579E70000D1
:10715000000014400000F03F300000000000F04349
:107160000000E03F2DE9FF4F95B09A46884606465D
:107170000025EEE1252877D100242746F94A012190
:10718000039400E0044316F8013F203B01FA03F0AA
:107190001042F7D130782A2811D06FF02F033078C1
:1071A000A0F13002092A16D8039A44F0020402EB37
:1071B000820203EB42021044761C0390EFE758F87A
:1071C000042B0392002A03DA504244F40054039043
:1071D00044F00204761C30782E2816D116F8010FE0
:1071E00044F004042A280DD06FF02F023078A0F16B
:1071F0003003092B09D807EB870302EB4303C718B9
:10720000761CF3E758F8047B761C30786C280FD096
:1072100006DC4C2817D068280DD06A2814D104E069
:10722000742810D07A280FD10DE044F400140AE03D
:1072300044F4801401E044F440147278824202D194
:1072400004F58014761C761C307866280BD013DC8D
:10725000582877D009DC002875D04528F6D0462874
:10726000F4D047281AD193E118E0632835D0642878
:1072700079D0652812D18BE1702873D008DC67289B
:10728000F1D069286FD06E280DD06F2806D1ACE000
:1072900073282CD0752874D0782853D0524617996B
:1072A00090476D1C54E1C4F30250022809D0032812
:1072B0000DD0D8F8001004280DD00D6008F1040896
:1072C00046E1D8F80010EA17C1E90052F6E7D8F80D
:1072D00000100D80F2E70D70F0E718F8041B8DF830
:1072E000001000208DF80100EB46012003E058F863
:1072F00004BB4FF0FF3061074FF0000102D40DE0F6
:1073000009F101018946B9420FDA8145F8DB1BF822
:1073100009100029F4D108E009F1010189468142F0
:10732000FADB1BF809100029F6D103985346A0EBAD
:10733000090721463846179A00F080FA284400EBE6
:10734000090507E044E008E10DE01BF8010B524697
:1073500017999047B9F10109F7D2534621463846AB
:10736000179AF2E039E00A21C4F302524FF0000B01
:107370000091022A06D058F8040BC117032A09D03D
:107380000AE023E008F1070020F00702F2E802011A
:10739000904605E000B2C117042A01D140B2C117DE
:1073A000002906DA0A460021404261EB02012D2243
:1073B00002E0220504D52B228DF80420012203E0EF
:1073C000E20701D02022F7E7914657E00A2100E0CA
:1073D00010214FF0000B00910BE010214FF0000B3B
:1073E00044F004040827009103E008204FF0000B4C
:1073F0000090C4F30252022A05D058F8040B002171
:10740000032A08D008E008F1070020F00702F2E89C
:107410000201904603E080B2042A00D1C0B24FF0CE
:10742000000922072AD53278702A07D0DDF800C07B
:107430008CF0100C5CEA0B0C05D00EE040228DF8AD
:107440000420012208E050EA010306D030238DF821
:1074500004308DF8052002229146009B83F008033A
:1074600053EA0B030AD150EA010201D1620705D5A4
:1074700030228DF804204FF001097F1E3278582AFF
:1074800004D039A20C920CAA02920BE03BA2F9E7BD
:107490005B46009AFEF75CFF0C9B9B5C029A521EB7
:1074A0000292137050EA0102F2D1029804A9081A5C
:1074B00000F1200B600702D524F4803400E001279E
:1074C0005F4502DDA7EB0B0000E0002000EB0B01A5
:1074D000009003984944401A0390E00306D45346B1
:1074E0002146179A039800F0A9F90544002706E001
:1074F00001A85246C05D179990476D1C7F1C4F45EF
:10750000F6DBE0030CD553462146179A039800F0AA
:1075100095F9054404E030205246179990476D1CB8
:107520000099481E00900029F5DC08E002980299B5
:1075300052460078491C0291179990476D1CBBF187
:107540000001ABF1010BF1DC5BE100F065F90544F2
:10755000761C307800287FF40DAE19B02846BDE8BF
:10756000F08F0000092801003031323334353637CE
:10757000383961626364656600000000303132337F
:10758000343536373839414243444546000000001F
:10759000600700D4062708F1070020F00700F0E894
:1075A0000223804603F0004C5FEA0C0001D097A054
:1075B00009E0200501D596A005E0E00701D095A0DF
:1075C00001E0AFF24C001390307823F000436528BF
:1075D0000CD006DC452809D046281DD047287FD18D
:1075E0003BE0662818D067287AD136E00021112FB9
:1075F00001DB112000E0781CCDE9000104A90CA8F2
:10760000FFF7EEFCDDE90D010C9A4FF0000B07F1DE
:107610000109109200914EE04FF000400097CDE933
:10762000011004A90CA8FFF7DBFCDDE90D020C9B9F
:107630000F994FF0000B91461093009211B9791CED
:1076400000EB0109B7EB090003D4C0F1FF3B07F1E0
:107650000109A9EB0700019042E0012F00DA0127A0
:107660000021112F01DD112000E03846CDE9000195
:1076700004A90CA8FFF7B4FCDDE90D010C9A0091F8
:107680004FF0000BB946109221070FD4009A4A45DB
:1076900003DA914601E0A9F10109B9F1010F05DD15
:1076A000109AA9F10101515C3029F4D0B84202DAF4
:1076B00010F1040F03DA0121CDE9011010E00028D8
:1076C00003DC8344A9EB000102E0411C494500DDD5
:1076D0008946A0EB0B00401C01904FF00040029047
:1076E000200705D40198484502DB4FF0FF30019098
:1076F00000208DF84B0002980DF14B07B0F1004FC0
:1077000025D002200C902B200D90029800280CDA36
:10771000404202902D200D9007E00A210298FEF7CA
:1077200001FE3031029007F8011D0C99481E0C90A3
:107730000029F2DC02980028EFD1791E0D9808701C
:10774000307800F0200040F0450007F8020D11A845
:10775000C01BC01D02901398007800B1012000EBFF
:107760000901019801EBE071029801440398401A65
:10777000401E0390E00306D453462146179A03980F
:1077800000F05CF805441398007818B15246179938
:1077900090476D1CE00323D553462146179A039862
:1077A00000F04CF805441BE0BBF1000F07DB00982C
:1077B000584504DD1098179910F80B0001E017994F
:1077C00030205246904701980BF1010B401E05F105
:1077D0000105019004D12E205246179990476D1C47
:1077E000B9F10001A9F10109DEDC05E017F8010B90
:1077F0005246179990476D1C0299481E0290002925
:10780000F4DC53462146179A03989EE62D000000AB
:107810002B000000200000002DE9F0410446002567
:107820001E461746880404D405E039462020B04798
:107830006D1C641EF9D52846BDE8F0812DE9F041A4
:10784000044600251E469046C80301D5302700E0B7
:107850002027880404D505E041463846B0476D1C12
:10786000641EF9D52846BDE8F0810A68531C0B60F8
:107870001070704710B5074890F8880100F00400B8
:1078800030B9054800F06EF80521402004F03CF9BD
:10789000012010BD849B0020849C002010B511485D
:1078A00090F8880100F00400002819D00E49A1F1D9
:1078B000800000F06BF870B940220B49A1F1800004
:1078C000FEF7E5FC0121402004F01EF907A0FFF7B8
:1078D00055FB002010BD0EA0FFF750FB0120F9E77B
:1078E0000120F7E7849B0020049D00200A0D6170B1
:1078F000702066726F6D206F75747369646520E621
:107900009BB4E696B0E68890E58A9F2E0D0A0000AB
:107910000A0D6170702066726F6D206F75747369E7
:1079200064652020E69BB4E696B0E5A4B1E8B4A572
:107930002E0D0A002DE9F0410446002500260027FF
:10794000266807483040B04206D165682F46206857
:1079500080F3088800BFB8470120BDE8F08100002F
:10796000FFFF0F2010B5044607496069884205D023
:10797000204603F093FC6169884202D1E068FFF77A
:10798000D9FF012010BD0000214334122DE9F04F32
:107990002DED028B81B005460C464FF00009CA461A
:1079A0000020009000278046002604B12DB9012058
:1079B00001B0BDEC028BBDE8F08F204603F06EFCF9
:1079C00000906169884206D062693CA00099FFF787
:1079D000D5FA0220ECE7284603F060FC6169884292
:1079E00001D10020E4E7D4F80C90D5F80CA0276969
:1079F0002369EA683A48E168FFF7C0FA4CE0B7F556
:107A0000806F02DD4FF4806000E038468046207AC7
:107A100000F0010030B142463249484600F082FE93
:107A2000064305E042462F49484600F099F80643D0
:107A3000287A00F0010030B142462A49504600F051
:107A4000CDFE064305E042462649504600F0B4F814
:107A500006430EB10420ABE7C144C244A7EB0807BC
:107A60002069C01B00EE100AF8EE400A94ED040AEB
:107A7000B8EE401A80EE810ADFED1B0A20EE200AE4
:107A800010EE10BA5846FEF73AFC41EC180B53ECD6
:107A9000182B16A0FFF772FA002FB0DC20692861BE
:107AA000284603F0FBFB6169884204D014A0FFF76D
:107AB00065FA05207CE730467AE70000536F75725F
:107AC0006365204352433A25303858204352433AA5
:107AD00025303858206572726F722E0D0A00000032
:107AE0005CF40008849D00200000C8427570646149
:107AF00074653A20252E326625250D0A0000000007
:107B0000E59BBAE4BBB6E68BB7E8B49DE5908EEF93
:107B1000BC8CE6A0A1E9AA8CE79BAEE6A087E58C29
:107B2000BAE59F9FE696B0E59BBAE4BBB6435243E5
:107B3000E5A4B1E8B4A52E0D0A00000010B500249C
:107B400003F09EFF4FF400720349044800F034F83C
:107B50000446204610BD0000849B00200040000821
:107B60002DE9F04104460E4615463746002D03DB4D
:107B700060190E4988420ED300BF0D48007800F00E
:107B8000040020B12A4621460A48FFF7F7F900BF52
:107B90000120BDE8F08103E014F8010B07F8010BA8
:107BA000281EA5F10105F7DC0020F2E70000080817
:107BB000D0000020CCF300082DE9F04704460F4622
:107BC0001546B8460026B146002D03DB60193C4936
:107BD00088420ED300BF3B48007800F0040020B17B
:107BE0002A4621463848FFF7C9F900BF0120BDE801
:107BF000F08701F043FE40F2053001F04BFD4FF4F9
:107C0000417001F047FD40F2023001F043FD4FE0CA
:107C1000C4F30A00002829D14FF0080900BF20460C
:107C200001F0BAFD28B1A9F1010040B2B0F100099C
:107C3000F5D140F2053001F02DFD4FF4417001F017
:107C400029FD40F2023001F025FDB9F1000F0DD100
:107C500000BF1C48007800F0040018B121461BA0AA
:107C6000FFF78CF900BF46F0020623E038F8021B4C
:107C7000204601F01FFD68B100BF1248007800F0F7
:107C8000040018B121461FA0FFF778F900BF46F0A5
:107C900004060FE040F2053001F0FCFC4FF44170A7
:107CA00001F0F8FC40F2023001F0F4FCA41CAD1E1F
:107CB000002DADDC00BF01F059FD304697E7000014
:107CC00000000808D000002014F4000863466C612E
:107CD00073685772697465446174617320666D637B
:107CE0005F706167655F657261736520616464726E
:107CF0003A20307825303858206572726F722E0D18
:107D00000A00000063466C617368577269746544C9
:107D1000617461732048414C5F464C4153485F5049
:107D2000726F6772616D20616464723A20307825E9
:107D3000303858206572726F72210D0A0000000001
:107D400070B500250024282224492548FEF7CAFAE8
:107D5000002841D000BF3DE0002538E004EB84005E
:107D60001F4901EB8000405D04EB84011B4A02EBDC
:107D70008101495D884229D004EB8400184901EB58
:107D8000800004EB840102EB8101495D415524B977
:107D90002021144801F0B2FD04E04FF48051124854
:107DA00001F0ACFD04EB84020C4B03EB8202515D4D
:107DB000E8B203F067FF24B920210A4801F0A0FDD2
:107DC00004E04FF48051084801F09AFD6D1C142D19
:107DD000C4DB641C022CBFDB002070BD84A100202A
:107DE000ACA10020000C0140001001402DE9F0473B
:107DF00004460D4616461F464FF00008C14624B102
:107E00001DB1082E01D3002F03DC4FF0FF30BDE879
:107E1000F08724606460E81C20F0030905E0C84690
:107E2000B1444146204600F006F8381EA7F101078C
:107E3000F5DC0020EBE7024602B111B94FF0FF304C
:107E40007047106808601068416011604A60002047
:107E5000F6E700002DE9F84F044600200090814627
:107E600000250026002782468046834614B901205B
:107E7000BDE8F88FA578E07840EA05252679607995
:107E800040EA06266078062801D1284600E0A819B5
:107E90001FFA80FA002D77DBBAF5006F74DA2846F6
:107EA00087B26078032804D0062812D0102860D149
:107EB0001FE0284600F08EF83B4901EB470220788E
:107EC0002346314600F05CF9052000EB46000090A7
:107ED00058E0354820F817603146284600F066F82B
:107EE000207823463246294600F08AF9082000907F
:107EF00048E040F21510854204D1204600F00FFB07
:107F0000834621E004F107084FF000091AE018F851
:107F1000010B254921F8170018F8011B224810F819
:107F2000170041EA0020204921F81700084630F8E0
:107F30001710284600F03AF8681C85B2781C87B202
:107F400009F10109B145E2DBBBF1000F08D120784E
:107F500023463246294600F073F90820009007E0D6
:107F6000617820782346032200F08AF905200090EA
:107F700008E0617820782346022200F081F905208C
:107F8000009000BF08E0FFE76178207823460122D7
:107F900000F076F90520009000222046009900F0BC
:107FA0004DFB002064E700005EA6002070B504468B
:107FB0000D460026B4F58A7F06D105F0010010B108
:107FC00000F0ECF9064601E0012070BD00BF30462C
:107FD000FBE700002DE9F041044602F04FFC0546A6
:107FE00001F090FF1F4902680A604068486001F094
:107FF00085FF1C4902688A604068C86002F042FC44
:1080000006461022314617481030FEF740F901F0BD
:1080100079FF8046FEF75FF9064601F073FF0746D9
:10802000324639461048FEF732F901F067FF8046C4
:10803000FEF751F9064601F061FF07463246394620
:1080400009481030FEF723F9B4F58A7F06D100F015
:1080500055F9B5F852000349A1F828020020BDE8FF
:10806000F08100005EA600205EA800202DE9F0430C
:108070008BB08146182104A8FEF722F900240020C5
:1080800003900026029000253B480078012800D18B
:10809000322400BF02A800F07FFA0028FAD0364848
